{
  "contractName": "GameCode",
  "abi": [
    {
      "inputs": [
        {
          "internalType": "address",
          "name": "creator",
          "type": "address"
        }
      ],
      "stateMutability": "nonpayable",
      "type": "constructor"
    },
    {
      "anonymous": false,
      "inputs": [
        {
          "indexed": false,
          "internalType": "string",
          "name": "code",
          "type": "string"
        },
        {
          "indexed": false,
          "internalType": "string",
          "name": "metadata",
          "type": "string"
        }
      ],
      "name": "CodeCreated",
      "type": "event"
    },
    {
      "anonymous": false,
      "inputs": [
        {
          "indexed": false,
          "internalType": "string",
          "name": "code",
          "type": "string"
        },
        {
          "indexed": true,
          "internalType": "address",
          "name": "redeemer",
          "type": "address"
        }
      ],
      "name": "CodeRedeemed",
      "type": "event"
    },
    {
      "inputs": [
        {
          "internalType": "string",
          "name": "",
          "type": "string"
        }
      ],
      "name": "codes",
      "outputs": [
        {
          "internalType": "string",
          "name": "code",
          "type": "string"
        },
        {
          "internalType": "string",
          "name": "metadata",
          "type": "string"
        },
        {
          "internalType": "bool",
          "name": "redeemed",
          "type": "bool"
        }
      ],
      "stateMutability": "view",
      "type": "function"
    },
    {
      "inputs": [],
      "name": "developer",
      "outputs": [
        {
          "internalType": "address",
          "name": "",
          "type": "address"
        }
      ],
      "stateMutability": "view",
      "type": "function"
    },
    {
      "inputs": [
        {
          "internalType": "string",
          "name": "code",
          "type": "string"
        },
        {
          "internalType": "string",
          "name": "metadata",
          "type": "string"
        }
      ],
      "name": "createCode",
      "outputs": [],
      "stateMutability": "nonpayable",
      "type": "function"
    },
    {
      "inputs": [
        {
          "internalType": "string",
          "name": "code",
          "type": "string"
        }
      ],
      "name": "redeemCode",
      "outputs": [],
      "stateMutability": "nonpayable",
      "type": "function"
    }
  ],
  "bytecode": "0x608060405234801561001057600080fd5b50604051610e23380380610e238339818101604052602081101561003357600080fd5b8101908080519060200190929190505050806000806101000a81548173ffffffffffffffffffffffffffffffffffffffff021916908373ffffffffffffffffffffffffffffffffffffffff16021790555050610d8f806100946000396000f3fe608060405234801561001057600080fd5b506004361061004c5760003560e01c806388b8b2de14610051578063b77e081c146101fa578063ca4b208b146102b5578063ea8a0f69146102e9575b600080fd5b61010a6004803603602081101561006757600080fd5b810190808035906020019064010000000081111561008457600080fd5b82018360208201111561009657600080fd5b803590602001918460018302840111640100000000831117156100b857600080fd5b91908080601f016020809104026020016040519081016040528093929190818152602001838380828437600081840152601f19601f82011690508083019250505050505050919291929050505061043b565b6040518080602001806020018415158152602001838103835286818151815260200191508051906020019080838360005b8381101561015657808201518184015260208101905061013b565b50505050905090810190601f1680156101835780820380516001836020036101000a031916815260200191505b50838103825285818151815260200191508051906020019080838360005b838110156101bc5780820151818401526020810190506101a1565b50505050905090810190601f1680156101e95780820380516001836020036101000a031916815260200191505b509550505050505060405180910390f35b6102b36004803603602081101561021057600080fd5b810190808035906020019064010000000081111561022d57600080fd5b82018360208201111561023f57600080fd5b8035906020019184600183028401116401000000008311171561026157600080fd5b91908080601f016020809104026020016040519081016040528093929190818152602001838380828437600081840152601f19601f8201169050808301925050505050505091929192905050506105b8565b005b6102bd6108dc565b604051808273ffffffffffffffffffffffffffffffffffffffff16815260200191505060405180910390f35b610439600480360360408110156102ff57600080fd5b810190808035906020019064010000000081111561031c57600080fd5b82018360208201111561032e57600080fd5b8035906020019184600183028401116401000000008311171561035057600080fd5b91908080601f016020809104026020016040519081016040528093929190818152602001838380828437600081840152601f19601f820116905080830192505050505050509192919290803590602001906401000000008111156103b357600080fd5b8201836020820111156103c557600080fd5b803590602001918460018302840111640100000000831117156103e757600080fd5b91908080601f016020809104026020016040519081016040528093929190818152602001838380828437600081840152601f19601f820116905080830192505050505050509192919290505050610900565b005b600181805160208101820180518482526020830160208501208183528095505050505050600091509050806000018054600181600116156101000203166002900480601f0160208091040260200160405190810160405280929190818152602001828054600181600116156101000203166002900480156104fd5780601f106104d2576101008083540402835291602001916104fd565b820191906000526020600020905b8154815290600101906020018083116104e057829003601f168201915b505050505090806001018054600181600116156101000203166002900480601f01602080910402602001604051908101604052809291908181526020018280546001816001161561010002031660029004801561059b5780601f106105705761010080835404028352916020019161059b565b820191906000526020600020905b81548152906001019060200180831161057e57829003601f168201915b5050505050908060020160009054906101000a900460ff16905083565b60006001826040518082805190602001908083835b602083106105f057805182526020820191506020810190506020830392506105cd565b6001836020036101000a038019825116818451168082178552505050505050905001915050908152602001604051809103902060000180546001816001161561010002031660029004905014156106af576040517f08c379a00000000000000000000000000000000000000000000000000000000081526004018080602001828103825260138152602001807f436f646520646f6573206e6f742065786973740000000000000000000000000081525060200191505060405180910390fd5b600015156001826040518082805190602001908083835b602083106106e957805182526020820191506020810190506020830392506106c6565b6001836020036101000a038019825116818451168082178552505050505050905001915050908152602001604051809103902060020160009054906101000a900460ff161515146107a2576040517f08c379a00000000000000000000000000000000000000000000000000000000081526004018080602001828103825260158152602001807f436f646520616c72656164792072656465656d6564000000000000000000000081525060200191505060405180910390fd5b600180826040518082805190602001908083835b602083106107d957805182526020820191506020810190506020830392506107b6565b6001836020036101000a038019825116818451168082178552505050505050905001915050908152602001604051809103902060020160006101000a81548160ff0219169083151502179055503373ffffffffffffffffffffffffffffffffffffffff167f51e685eadb93e099984880537c6c051d12c1185892b55994ce7db9dbe2755410826040518080602001828103825283818151815260200191508051906020019080838360005b8381101561089f578082015181840152602081019050610884565b50505050905090810190601f1680156108cc5780820380516001836020036101000a031916815260200191505b509250505060405180910390a250565b60008054906101000a900473ffffffffffffffffffffffffffffffffffffffff1681565b60008054906101000a900473ffffffffffffffffffffffffffffffffffffffff1673ffffffffffffffffffffffffffffffffffffffff163373ffffffffffffffffffffffffffffffffffffffff16146109a4576040517f08c379a0000000000000000000000000000000000000000000000000000000008152600401808060200182810382526023815260200180610d376023913960400191505060405180910390fd5b60006001836040518082805190602001908083835b602083106109dc57805182526020820191506020810190506020830392506109b9565b6001836020036101000a038019825116818451168082178552505050505050905001915050908152602001604051809103902060000180546001816001161561010002031660029004905014610a9a576040517f08c379a00000000000000000000000000000000000000000000000000000000081526004018080602001828103825260138152602001807f436f646520616c7265616479206578697374730000000000000000000000000081525060200191505060405180910390fd5b6040518060600160405280838152602001828152602001600015158152506001836040518082805190602001908083835b60208310610aee5780518252602082019150602081019050602083039250610acb565b6001836020036101000a03801982511681845116808217855250505050505090500191505090815260200160405180910390206000820151816000019080519060200190610b3d929190610c8b565b506020820151816001019080519060200190610b5a929190610c8b565b5060408201518160020160006101000a81548160ff0219169083151502179055509050507fcc8c08643d8620a989f86a5d86ae9853ceb56a82a6ac2e69e24645fb9935ba368282604051808060200180602001838103835285818151815260200191508051906020019080838360005b83811015610be5578082015181840152602081019050610bca565b50505050905090810190601f168015610c125780820380516001836020036101000a031916815260200191505b50838103825284818151815260200191508051906020019080838360005b83811015610c4b578082015181840152602081019050610c30565b50505050905090810190601f168015610c785780820380516001836020036101000a031916815260200191505b5094505050505060405180910390a15050565b828054600181600116156101000203166002900490600052602060002090601f016020900481019282610cc15760008555610d08565b82601f10610cda57805160ff1916838001178555610d08565b82800160010185558215610d08579182015b82811115610d07578251825591602001919060010190610cec565b5b509050610d159190610d19565b5090565b5b80821115610d32576000816000905550600101610d1a565b509056fe4f6e6c792074686520646576656c6f7065722063616e2063726561746520636f646573a264697066735822122080e1177527631738cbd337cd0df3f763b9dfe0984c8dde267d3520da190b893c64736f6c63430007060033",
  "immutableReferences": {},
  "source": "pragma solidity >=0.4.22 <0.9.0;\n\n// Main contract for managing game codes for a single developer\ncontract GameCode {\n    struct GameCodeInfo {\n        string code;  \n        string metadata; \n        bool redeemed;\n    }\n\n    // The developer's address that owns and manages this contract\n    address public developer;\n\n    // Mapping to store game codes against their string identifiers\n    mapping(string => GameCodeInfo) public codes;\n\n    // Event triggered when a new code is created\n    event CodeCreated(string code, string metadata);\n    // Event triggered when a code is redeemed\n    event CodeRedeemed(string code, address indexed redeemer);\n\n    // Constructor to set the developer's address at contract deployment\n    constructor(address creator) {\n        developer = creator;\n    }\n\n    // Function to create a new game code, only callable by the developer\n    function createCode(string memory code, string memory metadata) public {\n        require(msg.sender == developer, \"Only the developer can create codes\");\n        require(bytes(codes[code].code).length == 0, \"Code already exists\");\n        \n        // Create a new GameCodeInfo struct and store it in the codes mapping\n        codes[code] = GameCodeInfo(code, metadata, false);\n\n        // Trigger an event to log the creation of a new code\n        emit CodeCreated(code, metadata);\n    }\n\n    // Function to redeem a game code\n    function redeemCode(string memory code) public {\n        // Check that the code exists and has not been redeemed\n        require(bytes(codes[code].code).length != 0, \"Code does not exist\");\n        require(codes[code].redeemed == false, \"Code already redeemed\");\n\n        // Mark the code as redeemed\n        codes[code].redeemed = true;\n\n        // Trigger an event to log the code redemption\n        emit CodeRedeemed(code, msg.sender);\n    }\n}\n",
  "sourcePath": "/projects/BC-Grp04-Game-Codes/contracts/GameCode.sol",
  "compiler": {
    "name": "solc",
    "version": "0.7.6+commit.7338295f.Emscripten.clang"
  },
  "schemaVersion": "3.4.1",
  "updatedAt": "2023-06-12T14:06:17.098Z",
  "devdoc": {
    "kind": "dev",
    "methods": {},
    "version": 1
  },
  "userdoc": {
    "kind": "user",
    "methods": {},
    "version": 1
  }
}